{
  "_format": "hh-sol-artifact-1",
  "contractName": "Bundle",
  "sourceName": "contracts/bundlr.sol",
  "abi": [
    {
      "inputs": [
        {
          "internalType": "uint256",
          "name": "maxSupply",
          "type": "uint256"
        },
        {
          "internalType": "string",
          "name": "symbol",
          "type": "string"
        },
        {
          "internalType": "string",
          "name": "name",
          "type": "string"
        },
        {
          "internalType": "string",
          "name": "metadata",
          "type": "string"
        },
        {
          "internalType": "address",
          "name": "owner",
          "type": "address"
        },
        {
          "internalType": "address",
          "name": "_vrfCoordinator",
          "type": "address"
        },
        {
          "internalType": "address",
          "name": "_link",
          "type": "address"
        },
        {
          "internalType": "bytes32",
          "name": "_keyHash",
          "type": "bytes32"
        },
        {
          "internalType": "uint256",
          "name": "_fee",
          "type": "uint256"
        }
      ],
      "stateMutability": "nonpayable",
      "type": "constructor"
    },
    {
      "anonymous": false,
      "inputs": [
        {
          "indexed": true,
          "internalType": "address",
          "name": "owner",
          "type": "address"
        },
        {
          "indexed": true,
          "internalType": "address",
          "name": "approved",
          "type": "address"
        },
        {
          "indexed": true,
          "internalType": "uint256",
          "name": "tokenId",
          "type": "uint256"
        }
      ],
      "name": "Approval",
      "type": "event"
    },
    {
      "anonymous": false,
      "inputs": [
        {
          "indexed": true,
          "internalType": "address",
          "name": "owner",
          "type": "address"
        },
        {
          "indexed": true,
          "internalType": "address",
          "name": "operator",
          "type": "address"
        },
        {
          "indexed": false,
          "internalType": "bool",
          "name": "approved",
          "type": "bool"
        }
      ],
      "name": "ApprovalForAll",
      "type": "event"
    },
    {
      "anonymous": false,
      "inputs": [
        {
          "indexed": true,
          "internalType": "address",
          "name": "previousOwner",
          "type": "address"
        },
        {
          "indexed": true,
          "internalType": "address",
          "name": "newOwner",
          "type": "address"
        }
      ],
      "name": "OwnershipTransferred",
      "type": "event"
    },
    {
      "anonymous": false,
      "inputs": [
        {
          "indexed": true,
          "internalType": "address",
          "name": "from",
          "type": "address"
        },
        {
          "indexed": true,
          "internalType": "address",
          "name": "to",
          "type": "address"
        },
        {
          "indexed": true,
          "internalType": "uint256",
          "name": "tokenId",
          "type": "uint256"
        }
      ],
      "name": "Transfer",
      "type": "event"
    },
    {
      "inputs": [],
      "name": "MAX_SUPPLY",
      "outputs": [
        {
          "internalType": "uint256",
          "name": "",
          "type": "uint256"
        }
      ],
      "stateMutability": "view",
      "type": "function"
    },
    {
      "inputs": [
        {
          "internalType": "uint256",
          "name": "",
          "type": "uint256"
        }
      ],
      "name": "_redeemPrice",
      "outputs": [
        {
          "internalType": "uint256",
          "name": "",
          "type": "uint256"
        }
      ],
      "stateMutability": "view",
      "type": "function"
    },
    {
      "inputs": [
        {
          "internalType": "address",
          "name": "to",
          "type": "address"
        },
        {
          "internalType": "uint256",
          "name": "tokenId",
          "type": "uint256"
        }
      ],
      "name": "approve",
      "outputs": [],
      "stateMutability": "nonpayable",
      "type": "function"
    },
    {
      "inputs": [
        {
          "internalType": "address",
          "name": "owner",
          "type": "address"
        }
      ],
      "name": "balanceOf",
      "outputs": [
        {
          "internalType": "uint256",
          "name": "",
          "type": "uint256"
        }
      ],
      "stateMutability": "view",
      "type": "function"
    },
    {
      "inputs": [],
      "name": "collectionMetaData",
      "outputs": [
        {
          "internalType": "string",
          "name": "",
          "type": "string"
        }
      ],
      "stateMutability": "view",
      "type": "function"
    },
    {
      "inputs": [],
      "name": "currentDropCycle",
      "outputs": [
        {
          "internalType": "uint256",
          "name": "_value",
          "type": "uint256"
        }
      ],
      "stateMutability": "view",
      "type": "function"
    },
    {
      "inputs": [
        {
          "internalType": "uint256",
          "name": "tokenId",
          "type": "uint256"
        }
      ],
      "name": "getApproved",
      "outputs": [
        {
          "internalType": "address",
          "name": "",
          "type": "address"
        }
      ],
      "stateMutability": "view",
      "type": "function"
    },
    {
      "inputs": [],
      "name": "getCurrentBundleLength",
      "outputs": [
        {
          "internalType": "uint256",
          "name": "",
          "type": "uint256"
        }
      ],
      "stateMutability": "view",
      "type": "function"
    },
    {
      "inputs": [],
      "name": "getCurrentRedeemPrice",
      "outputs": [
        {
          "internalType": "uint256",
          "name": "",
          "type": "uint256"
        }
      ],
      "stateMutability": "view",
      "type": "function"
    },
    {
      "inputs": [
        {
          "internalType": "address",
          "name": "owner",
          "type": "address"
        },
        {
          "internalType": "address",
          "name": "operator",
          "type": "address"
        }
      ],
      "name": "isApprovedForAll",
      "outputs": [
        {
          "internalType": "bool",
          "name": "",
          "type": "bool"
        }
      ],
      "stateMutability": "view",
      "type": "function"
    },
    {
      "inputs": [
        {
          "internalType": "string",
          "name": "uri",
          "type": "string"
        }
      ],
      "name": "mint",
      "outputs": [
        {
          "internalType": "uint256",
          "name": "",
          "type": "uint256"
        }
      ],
      "stateMutability": "nonpayable",
      "type": "function"
    },
    {
      "inputs": [],
      "name": "mintedCrates",
      "outputs": [
        {
          "internalType": "uint256",
          "name": "_value",
          "type": "uint256"
        }
      ],
      "stateMutability": "view",
      "type": "function"
    },
    {
      "inputs": [],
      "name": "name",
      "outputs": [
        {
          "internalType": "string",
          "name": "",
          "type": "string"
        }
      ],
      "stateMutability": "view",
      "type": "function"
    },
    {
      "inputs": [
        {
          "components": [
            {
              "internalType": "bool",
              "name": "HasERC721",
              "type": "bool"
            },
            {
              "internalType": "bool",
              "name": "HasERC20",
              "type": "bool"
            },
            {
              "internalType": "address",
              "name": "ERC721Address",
              "type": "address"
            },
            {
              "internalType": "uint256[]",
              "name": "ERC721Tokens",
              "type": "uint256[]"
            },
            {
              "internalType": "address",
              "name": "ERC20Address",
              "type": "address"
            },
            {
              "internalType": "uint256",
              "name": "ERC20Amount",
              "type": "uint256"
            }
          ],
          "internalType": "struct BundleType.Bundle[]",
          "name": "bundles",
          "type": "tuple[]"
        },
        {
          "internalType": "uint256",
          "name": "redeemPrice",
          "type": "uint256"
        }
      ],
      "name": "newCycle",
      "outputs": [
        {
          "internalType": "uint256",
          "name": "",
          "type": "uint256"
        }
      ],
      "stateMutability": "nonpayable",
      "type": "function"
    },
    {
      "inputs": [],
      "name": "owner",
      "outputs": [
        {
          "internalType": "address",
          "name": "",
          "type": "address"
        }
      ],
      "stateMutability": "view",
      "type": "function"
    },
    {
      "inputs": [
        {
          "internalType": "uint256",
          "name": "tokenId",
          "type": "uint256"
        }
      ],
      "name": "ownerOf",
      "outputs": [
        {
          "internalType": "address",
          "name": "",
          "type": "address"
        }
      ],
      "stateMutability": "view",
      "type": "function"
    },
    {
      "inputs": [
        {
          "internalType": "bytes32",
          "name": "requestId",
          "type": "bytes32"
        },
        {
          "internalType": "uint256",
          "name": "randomness",
          "type": "uint256"
        }
      ],
      "name": "rawFulfillRandomness",
      "outputs": [],
      "stateMutability": "nonpayable",
      "type": "function"
    },
    {
      "inputs": [
        {
          "internalType": "uint256",
          "name": "bundleId",
          "type": "uint256"
        }
      ],
      "name": "redeem",
      "outputs": [],
      "stateMutability": "payable",
      "type": "function"
    },
    {
      "inputs": [],
      "name": "renounceOwnership",
      "outputs": [],
      "stateMutability": "nonpayable",
      "type": "function"
    },
    {
      "inputs": [
        {
          "internalType": "address",
          "name": "from",
          "type": "address"
        },
        {
          "internalType": "address",
          "name": "to",
          "type": "address"
        },
        {
          "internalType": "uint256",
          "name": "tokenId",
          "type": "uint256"
        }
      ],
      "name": "safeTransferFrom",
      "outputs": [],
      "stateMutability": "nonpayable",
      "type": "function"
    },
    {
      "inputs": [
        {
          "internalType": "address",
          "name": "from",
          "type": "address"
        },
        {
          "internalType": "address",
          "name": "to",
          "type": "address"
        },
        {
          "internalType": "uint256",
          "name": "tokenId",
          "type": "uint256"
        },
        {
          "internalType": "bytes",
          "name": "_data",
          "type": "bytes"
        }
      ],
      "name": "safeTransferFrom",
      "outputs": [],
      "stateMutability": "nonpayable",
      "type": "function"
    },
    {
      "inputs": [
        {
          "internalType": "address",
          "name": "operator",
          "type": "address"
        },
        {
          "internalType": "bool",
          "name": "approved",
          "type": "bool"
        }
      ],
      "name": "setApprovalForAll",
      "outputs": [],
      "stateMutability": "nonpayable",
      "type": "function"
    },
    {
      "inputs": [
        {
          "internalType": "bytes4",
          "name": "interfaceId",
          "type": "bytes4"
        }
      ],
      "name": "supportsInterface",
      "outputs": [
        {
          "internalType": "bool",
          "name": "",
          "type": "bool"
        }
      ],
      "stateMutability": "view",
      "type": "function"
    },
    {
      "inputs": [],
      "name": "symbol",
      "outputs": [
        {
          "internalType": "string",
          "name": "",
          "type": "string"
        }
      ],
      "stateMutability": "view",
      "type": "function"
    },
    {
      "inputs": [
        {
          "internalType": "uint256",
          "name": "index",
          "type": "uint256"
        }
      ],
      "name": "tokenByIndex",
      "outputs": [
        {
          "internalType": "uint256",
          "name": "",
          "type": "uint256"
        }
      ],
      "stateMutability": "view",
      "type": "function"
    },
    {
      "inputs": [
        {
          "internalType": "address",
          "name": "owner",
          "type": "address"
        },
        {
          "internalType": "uint256",
          "name": "index",
          "type": "uint256"
        }
      ],
      "name": "tokenOfOwnerByIndex",
      "outputs": [
        {
          "internalType": "uint256",
          "name": "",
          "type": "uint256"
        }
      ],
      "stateMutability": "view",
      "type": "function"
    },
    {
      "inputs": [
        {
          "internalType": "uint256",
          "name": "tokenId",
          "type": "uint256"
        }
      ],
      "name": "tokenURI",
      "outputs": [
        {
          "internalType": "string",
          "name": "",
          "type": "string"
        }
      ],
      "stateMutability": "view",
      "type": "function"
    },
    {
      "inputs": [],
      "name": "totalSupply",
      "outputs": [
        {
          "internalType": "uint256",
          "name": "",
          "type": "uint256"
        }
      ],
      "stateMutability": "view",
      "type": "function"
    },
    {
      "inputs": [
        {
          "internalType": "address",
          "name": "from",
          "type": "address"
        },
        {
          "internalType": "address",
          "name": "to",
          "type": "address"
        },
        {
          "internalType": "uint256",
          "name": "tokenId",
          "type": "uint256"
        }
      ],
      "name": "transferFrom",
      "outputs": [],
      "stateMutability": "nonpayable",
      "type": "function"
    },
    {
      "inputs": [
        {
          "internalType": "address",
          "name": "newOwner",
          "type": "address"
        }
      ],
      "name": "transferOwnership",
      "outputs": [],
      "stateMutability": "nonpayable",
      "type": "function"
    }
  ],
  "bytecode": "0x60c06040523480156200001157600080fd5b50604051620037e4380380620037e483398101604081905262000034916200039f565b8383888a8160009080519060200190620000509291906200020f565b508051620000669060019060208401906200020f565b505050620000836200007d620000e460201b60201c565b620000e8565b6001600c556001600160a01b0391821660a052166080528551620000af9060109060208901906200020f565b5088601181905550620000cd856200013a60201b620010bb1760201c565b60159190915560165550620004c495505050505050565b3390565b600b80546001600160a01b038381166001600160a01b0319831681179093556040519116919082907f8be0079c531659141344cd1fd0a4f28419497f9722a3daafe3b4186f6b6457e090600090a35050565b600b546001600160a01b031633146200019a5760405162461bcd60e51b815260206004820181905260248201527f4f776e61626c653a2063616c6c6572206973206e6f7420746865206f776e657260448201526064015b60405180910390fd5b6001600160a01b038116620002015760405162461bcd60e51b815260206004820152602660248201527f4f776e61626c653a206e6577206f776e657220697320746865207a65726f206160448201526564647265737360d01b606482015260840162000191565b6200020c81620000e8565b50565b8280546200021d9062000487565b90600052602060002090601f0160209004810192826200024157600085556200028c565b82601f106200025c57805160ff19168380011785556200028c565b828001600101855582156200028c579182015b828111156200028c5782518255916020019190600101906200026f565b506200029a9291506200029e565b5090565b5b808211156200029a57600081556001016200029f565b634e487b7160e01b600052604160045260246000fd5b600082601f830112620002dd57600080fd5b81516001600160401b0380821115620002fa57620002fa620002b5565b604051601f8301601f19908116603f01168101908282118183101715620003255762000325620002b5565b816040528381526020925086838588010111156200034257600080fd5b600091505b8382101562000366578582018301518183018401529082019062000347565b83821115620003785760008385830101525b9695505050505050565b80516001600160a01b03811681146200039a57600080fd5b919050565b60008060008060008060008060006101208a8c031215620003bf57600080fd5b895160208b01519099506001600160401b0380821115620003df57600080fd5b620003ed8d838e01620002cb565b995060408c01519150808211156200040457600080fd5b620004128d838e01620002cb565b985060608c01519150808211156200042957600080fd5b50620004388c828d01620002cb565b9650506200044960808b0162000382565b94506200045960a08b0162000382565b93506200046960c08b0162000382565b925060e08a015191506101008a015190509295985092959850929598565b600181811c908216806200049c57607f821691505b60208210811415620004be57634e487b7160e01b600052602260045260246000fd5b50919050565b60805160a0516132ec620004f860003960008181610c400152611ee4015260008181610f6e0152611eb501526132ec6000f3fe6080604052600436106101cd5760003560e01c806370a08231116100f7578063c87b56dd11610095578063f2a913b811610064578063f2a913b81461052e578063f2fde38b14610545578063f440a96314610565578063fbe75eb61461058557600080fd5b8063c87b56dd14610492578063d85d3d27146104b2578063db006a75146104d2578063e985e9c5146104e557600080fd5b806394985ddd116100d157806394985ddd1461041d57806395d89b411461043d578063a22cb46514610452578063b88d4fde1461047257600080fd5b806370a08231146103ca578063715018a6146103ea5780638da5cb5b146103ff57600080fd5b806323b872dd1161016f5780634f6ccce71161013e5780634f6ccce7146103465780634f909f85146103665780636352211e1461037d5780636391e1771461039d57600080fd5b806323b872dd146102d05780632f745c59146102f057806332cb6b0c1461031057806342842e0e1461032657600080fd5b8063095ea7b3116101ab578063095ea7b31461026157806312f86c0d14610283578063152cafde146102a657806318160ddd146102bb57600080fd5b806301ffc9a7146101d257806306fdde0314610207578063081812fc14610229575b600080fd5b3480156101de57600080fd5b506101f26101ed366004612b9d565b61059a565b60405190151581526020015b60405180910390f35b34801561021357600080fd5b5061021c6105ab565b6040516101fe9190612c12565b34801561023557600080fd5b50610249610244366004612c25565b61063d565b6040516001600160a01b0390911681526020016101fe565b34801561026d57600080fd5b5061028161027c366004612c5a565b6106d7565b005b34801561028f57600080fd5b50610298610809565b6040519081526020016101fe565b3480156102b257600080fd5b5061021c61082e565b3480156102c757600080fd5b50600854610298565b3480156102dc57600080fd5b506102816102eb366004612c84565b6108bc565b3480156102fc57600080fd5b5061029861030b366004612c5a565b610943565b34801561031c57600080fd5b5061029860115481565b34801561033257600080fd5b50610281610341366004612c84565b6109eb565b34801561035257600080fd5b50610298610361366004612c25565b610a06565b34801561037257600080fd5b50600f546102989081565b34801561038957600080fd5b50610249610398366004612c25565b610aaa565b3480156103a957600080fd5b506102986103b8366004612c25565b60136020526000908152604090205481565b3480156103d657600080fd5b506102986103e5366004612cc0565b610b35565b3480156103f657600080fd5b50610281610bcf565b34801561040b57600080fd5b50600b546001600160a01b0316610249565b34801561042957600080fd5b50610281610438366004612cdb565b610c35565b34801561044957600080fd5b5061021c610cbb565b34801561045e57600080fd5b5061028161046d366004612d0b565b610cca565b34801561047e57600080fd5b5061028161048d366004612e0a565b610cd5565b34801561049e57600080fd5b5061021c6104ad366004612c25565b610d63565b3480156104be57600080fd5b506102986104cd366004612e86565b610d6e565b6102816104e0366004612c25565b610df8565b3480156104f157600080fd5b506101f2610500366004612ecf565b6001600160a01b03918216600090815260056020908152604080832093909416825291909152205460ff1690565b34801561053a57600080fd5b50600e546102989081565b34801561055157600080fd5b50610281610560366004612cc0565b6110bb565b34801561057157600080fd5b50610298610580366004612f26565b61119d565b34801561059157600080fd5b506102986113a0565b60006105a5826113c3565b92915050565b6060600080546105ba906130c2565b80601f01602080910402602001604051908101604052809291908181526020018280546105e6906130c2565b80156106335780601f1061060857610100808354040283529160200191610633565b820191906000526020600020905b81548152906001019060200180831161061657829003601f168201915b5050505050905090565b6000818152600260205260408120546001600160a01b03166106bb5760405162461bcd60e51b815260206004820152602c60248201527f4552433732313a20617070726f76656420717565727920666f72206e6f6e657860448201526b34b9ba32b73a103a37b5b2b760a11b60648201526084015b60405180910390fd5b506000908152600460205260409020546001600160a01b031690565b60006106e282610aaa565b9050806001600160a01b0316836001600160a01b0316141561076c5760405162461bcd60e51b815260206004820152602160248201527f4552433732313a20617070726f76616c20746f2063757272656e74206f776e6560448201527f720000000000000000000000000000000000000000000000000000000000000060648201526084016106b2565b336001600160a01b038216148061078857506107888133610500565b6107fa5760405162461bcd60e51b815260206004820152603860248201527f4552433732313a20617070726f76652063616c6c6572206973206e6f74206f7760448201527f6e6572206e6f7220617070726f76656420666f7220616c6c000000000000000060648201526084016106b2565b6108048383611401565b505050565b600060126000610818600e5490565b8152602081019190915260400160002054919050565b6010805461083b906130c2565b80601f0160208091040260200160405190810160405280929190818152602001828054610867906130c2565b80156108b45780601f10610889576101008083540402835291602001916108b4565b820191906000526020600020905b81548152906001019060200180831161089757829003601f168201915b505050505081565b6108c6338261146f565b6109385760405162461bcd60e51b815260206004820152603160248201527f4552433732313a207472616e736665722063616c6c6572206973206e6f74206f60448201527f776e6572206e6f7220617070726f76656400000000000000000000000000000060648201526084016106b2565b610804838383611566565b600061094e83610b35565b82106109c25760405162461bcd60e51b815260206004820152602b60248201527f455243373231456e756d657261626c653a206f776e657220696e646578206f7560448201527f74206f6620626f756e647300000000000000000000000000000000000000000060648201526084016106b2565b506001600160a01b03919091166000908152600660209081526040808320938352929052205490565b61080483838360405180602001604052806000815250610cd5565b6000610a1160085490565b8210610a855760405162461bcd60e51b815260206004820152602c60248201527f455243373231456e756d657261626c653a20676c6f62616c20696e646578206f60448201527f7574206f6620626f756e6473000000000000000000000000000000000000000060648201526084016106b2565b60088281548110610a9857610a986130fd565b90600052602060002001549050919050565b6000818152600260205260408120546001600160a01b0316806105a55760405162461bcd60e51b815260206004820152602960248201527f4552433732313a206f776e657220717565727920666f72206e6f6e657869737460448201527f656e7420746f6b656e000000000000000000000000000000000000000000000060648201526084016106b2565b60006001600160a01b038216610bb35760405162461bcd60e51b815260206004820152602a60248201527f4552433732313a2062616c616e636520717565727920666f7220746865207a6560448201527f726f20616464726573730000000000000000000000000000000000000000000060648201526084016106b2565b506001600160a01b031660009081526003602052604090205490565b600b546001600160a01b03163314610c295760405162461bcd60e51b815260206004820181905260248201527f4f776e61626c653a2063616c6c6572206973206e6f7420746865206f776e657260448201526064016106b2565b610c33600061173e565b565b336001600160a01b037f00000000000000000000000000000000000000000000000000000000000000001614610cad5760405162461bcd60e51b815260206004820152601f60248201527f4f6e6c7920565246436f6f7264696e61746f722063616e2066756c66696c6c0060448201526064016106b2565b610cb78282611790565b5050565b6060600180546105ba906130c2565b610cb7338383611b16565b610cdf338361146f565b610d515760405162461bcd60e51b815260206004820152603160248201527f4552433732313a207472616e736665722063616c6c6572206973206e6f74206f60448201527f776e6572206e6f7220617070726f76656400000000000000000000000000000060648201526084016106b2565b610d5d84848484611be5565b50505050565b60606105a582611c63565b6000601154610d7c600f5490565b10610dc95760405162461bcd60e51b815260206004820152601f60248201527f6d6178696d756d206372617465732068617665206265656e206d696e7465640060448201526064016106b2565b610dd7600f80546001019055565b6000610de2600f5490565b9050610dee3382611dee565b6105a58184611e08565b33610e0282610aaa565b6001600160a01b031614610e585760405162461bcd60e51b815260206004820152601960248201527f796f7520646f206e6f74206f776e207468652062756e646c650000000000000060448201526064016106b2565b60136000610e65600e5490565b8152602001908152602001600020543414610ec25760405162461bcd60e51b815260206004820152601c60248201527f696e737566666963656e7420616d6f756e7420746f2072656465656d0000000060448201526064016106b2565b60146000610ecf600e5490565b81526020808201929092526040908101600090812084825290925290205460ff1615610f3d5760405162461bcd60e51b815260206004820152601760248201527f62756e646c6520616c72656164792072656465656d656400000000000000000060448201526064016106b2565b6016546040517f70a082310000000000000000000000000000000000000000000000000000000081523060048201527f00000000000000000000000000000000000000000000000000000000000000006001600160a01b0316906370a0823190602401602060405180830381865afa158015610fbd573d6000803e3d6000fd5b505050506040513d601f19601f82011682018060405250810190610fe19190613113565b101561102f5760405162461bcd60e51b815260206004820152600f60248201527f4e6f7420656e6f756768204c494e4b000000000000000000000000000000000060448201526064016106b2565b600061103f601554601654611eb1565b9050816017600061104f600e5490565b8152602001908152602001600020600083815260200190815260200160002081905550600160146000611081600e5490565b8152602001908152602001600020600084815260200190815260200160002060006101000a81548160ff0219169083151502179055505050565b600b546001600160a01b031633146111155760405162461bcd60e51b815260206004820181905260248201527f4f776e61626c653a2063616c6c6572206973206e6f7420746865206f776e657260448201526064016106b2565b6001600160a01b0381166111915760405162461bcd60e51b815260206004820152602660248201527f4f776e61626c653a206e6577206f776e657220697320746865207a65726f206160448201527f646472657373000000000000000000000000000000000000000000000000000060648201526084016106b2565b61119a8161173e565b50565b600b546000906001600160a01b031633146111fa5760405162461bcd60e51b815260206004820181905260248201527f4f776e61626c653a2063616c6c6572206973206e6f7420746865206f776e657260448201526064016106b2565b60115483511461124c5760405162461bcd60e51b815260206004820152601560248201527f696e76616c69642062756e646c65206c656e677468000000000000000000000060448201526064016106b2565b61125a600e80546001019055565b60005b83518110156113755760126000611273600e5490565b8152602001908152602001600020848281518110611293576112936130fd565b602090810291909101810151825460018181018555600094855293839020825160049092020180548385015160408501516001600160a01b0316620100000275ffffffffffffffffffffffffffffffffffffffff0000199115156101000261ff00199515159590951661ffff1990931692909217939093179290921691909117815560608201518051929491936113309392850192910190612a5a565b5060808201516002820180546001600160a01b0319166001600160a01b0390921691909117905560a0909101516003909101558061136d81613142565b91505061125d565b508160136000611384600e5490565b8152602081019190915260400160002055600e545b9392505050565b6000601360006113af600e5490565b815260200190815260200160002054905090565b60006001600160e01b031982167f780e9d630000000000000000000000000000000000000000000000000000000014806105a557506105a58261202d565b600081815260046020526040902080546001600160a01b0319166001600160a01b038416908117909155819061143682610aaa565b6001600160a01b03167f8c5be1e5ebec7d5bd14f71427d1e84f3dd0314c0f7b2291e5b200ac8c7c3b92560405160405180910390a45050565b6000818152600260205260408120546001600160a01b03166114e85760405162461bcd60e51b815260206004820152602c60248201527f4552433732313a206f70657261746f7220717565727920666f72206e6f6e657860448201526b34b9ba32b73a103a37b5b2b760a11b60648201526084016106b2565b60006114f383610aaa565b9050806001600160a01b0316846001600160a01b0316148061152e5750836001600160a01b03166115238461063d565b6001600160a01b0316145b8061155e57506001600160a01b0380821660009081526005602090815260408083209388168352929052205460ff165b949350505050565b826001600160a01b031661157982610aaa565b6001600160a01b0316146115f55760405162461bcd60e51b815260206004820152602560248201527f4552433732313a207472616e736665722066726f6d20696e636f72726563742060448201527f6f776e657200000000000000000000000000000000000000000000000000000060648201526084016106b2565b6001600160a01b0382166116705760405162461bcd60e51b8152602060048201526024808201527f4552433732313a207472616e7366657220746f20746865207a65726f2061646460448201527f726573730000000000000000000000000000000000000000000000000000000060648201526084016106b2565b61167b8383836120c8565b611686600082611401565b6001600160a01b03831660009081526003602052604081208054600192906116af90849061315d565b90915550506001600160a01b03821660009081526003602052604081208054600192906116dd908490613174565b909155505060008181526002602052604080822080546001600160a01b0319166001600160a01b0386811691821790925591518493918716917fddf252ad1be2c89b69c2b068fc378daa952ba7f163c4a11628f55a4df523b3ef91a4505050565b600b80546001600160a01b038381166001600160a01b0319831681179093556040519116919082907f8be0079c531659141344cd1fd0a4f28419497f9722a3daafe3b4186f6b6457e090600090a35050565b6017600061179d600e5490565b81526020019081526020016000206000838152602001908152602001600020546000141561180d5760405162461bcd60e51b815260206004820152600f60248201527f696e76616c69642072657175657374000000000000000000000000000000000060448201526064016106b2565b60006118446017600061181f600e5490565b8152602001908152602001600020600085815260200190815260200160002054610aaa565b90506000600160126000611857600e5490565b8152602081019190915260400160002054611872919061315d565b61187c90846131a2565b611887906000613174565b9050600060126000611898600e5490565b815260200190815260200160002082815481106118b7576118b76130fd565b60009182526020918290206040805160c0810182526004909302909101805460ff808216151585526101008204161515848601526001600160a01b036201000090910416838301526001810180548351818702810187019094528084529394919360608601939283018282801561194d57602002820191906000526020600020905b815481526020019060010190808311611939575b505050918352505060028201546001600160a01b03166020820152600390910154604090910152905061198882611983600e5490565b6120d3565b805115611a625760005b816060015151811015611a605781604001516001600160a01b03166323b872dd6119c4600b546001600160a01b031690565b86856060015185815181106119db576119db6130fd565b60209081029190910101516040516001600160e01b031960e086901b1681526001600160a01b0393841660048201529290911660248301526044820152606401600060405180830381600087803b158015611a3557600080fd5b505af1158015611a49573d6000803e3d6000fd5b505050508080611a5890613142565b915050611992565b505b806020015115611b0f5780608001516001600160a01b03166323b872dd611a91600b546001600160a01b031690565b60a08401516040516001600160e01b031960e085901b1681526001600160a01b039283166004820152918716602483015260448201526064016020604051808303816000875af1158015611ae9573d6000803e3d6000fd5b505050506040513d601f19601f82011682018060405250810190611b0d91906131b6565b505b5050505050565b816001600160a01b0316836001600160a01b03161415611b785760405162461bcd60e51b815260206004820152601960248201527f4552433732313a20617070726f766520746f2063616c6c65720000000000000060448201526064016106b2565b6001600160a01b03838116600081815260056020908152604080832094871680845294825291829020805460ff191686151590811790915591519182527f17307eab39ab6107e8899845ad3d59bd9653f200f220920489ca2b5937696c31910160405180910390a3505050565b611bf0848484611566565b611bfc848484846122d6565b610d5d5760405162461bcd60e51b815260206004820152603260248201527f4552433732313a207472616e7366657220746f206e6f6e20455243373231526560448201527131b2b4bb32b91034b6b83632b6b2b73a32b960711b60648201526084016106b2565b6000818152600260205260409020546060906001600160a01b0316611cf05760405162461bcd60e51b815260206004820152603160248201527f45524337323155524953746f726167653a2055524920717565727920666f722060448201527f6e6f6e6578697374656e7420746f6b656e00000000000000000000000000000060648201526084016106b2565b6000828152600a602052604081208054611d09906130c2565b80601f0160208091040260200160405190810160405280929190818152602001828054611d35906130c2565b8015611d825780601f10611d5757610100808354040283529160200191611d82565b820191906000526020600020905b815481529060010190602001808311611d6557829003601f168201915b505050505090506000611da060408051602081019091526000815290565b9050805160001415611db3575092915050565b815115611de5578082604051602001611dcd9291906131d3565b60405160208183030381529060405292505050919050565b61155e8461241f565b610cb7828260405180602001604052806000815250612514565b6000828152600260205260409020546001600160a01b0316611e925760405162461bcd60e51b815260206004820152602e60248201527f45524337323155524953746f726167653a2055524920736574206f66206e6f6e60448201527f6578697374656e7420746f6b656e00000000000000000000000000000000000060648201526084016106b2565b6000828152600a60209081526040909120825161080492840190612aa5565b60007f00000000000000000000000000000000000000000000000000000000000000006001600160a01b0316634000aea07f000000000000000000000000000000000000000000000000000000000000000084866000604051602001611f21929190918252602082015260400190565b6040516020818303038152906040526040518463ffffffff1660e01b8152600401611f4e93929190613202565b6020604051808303816000875af1158015611f6d573d6000803e3d6000fd5b505050506040513d601f19601f82011682018060405250810190611f9191906131b6565b506000838152600d6020818152604080842054815180840189905280830186905230606082015260808082018390528351808303909101815260a090910190925281519183019190912093879052919052611fed906001613174565b6000858152600d602052604090205561155e8482604080516020808201949094528082019290925280518083038201815260609092019052805191012090565b60006001600160e01b031982167f80ac58cd00000000000000000000000000000000000000000000000000000000148061209057506001600160e01b031982167f5b5e139f00000000000000000000000000000000000000000000000000000000145b806105a557507f01ffc9a7000000000000000000000000000000000000000000000000000000006001600160e01b03198316146105a5565b610804838383612592565b60008181526012602052604090205482106121305760405162461bcd60e51b815260206004820152600e60248201527f696e76616c69642062756e646c6500000000000000000000000000000000000060448201526064016106b2565b6000818152601260205260409020805461214c9060019061315d565b8154811061215c5761215c6130fd565b906000526020600020906004020160126000838152602001908152602001600020838154811061218e5761218e6130fd565b600091825260209091208254600490920201805460ff928316151560ff19821681178355845461010090819004909416151590930261ff001990931661ffff19909116179190911780825582546001600160a01b036201000091829004160275ffffffffffffffffffffffffffffffffffffffff0000199091161781556001808301805461221f9284019190612b18565b5060028281015490820180546001600160a01b0319166001600160a01b03909216919091179055600391820154910155600081815260126020526040902080548061226c5761226c613233565b60008281526020812060046000199093019283020180547fffffffffffffffffffff00000000000000000000000000000000000000000000168155906122b56001830182612b58565b506002810180546001600160a01b0319169055600060039091015590555050565b60006001600160a01b0384163b1561241457604051630a85bd0160e11b81526001600160a01b0385169063150b7a029061231a903390899088908890600401613249565b6020604051808303816000875af1925050508015612355575060408051601f3d908101601f1916820190925261235291810190613285565b60015b6123fa573d808015612383576040519150601f19603f3d011682016040523d82523d6000602084013e612388565b606091505b5080516123f25760405162461bcd60e51b815260206004820152603260248201527f4552433732313a207472616e7366657220746f206e6f6e20455243373231526560448201527131b2b4bb32b91034b6b83632b6b2b73a32b960711b60648201526084016106b2565b805181602001fd5b6001600160e01b031916630a85bd0160e11b14905061155e565b506001949350505050565b6000818152600260205260409020546060906001600160a01b03166124ac5760405162461bcd60e51b815260206004820152602f60248201527f4552433732314d657461646174613a2055524920717565727920666f72206e6f60448201527f6e6578697374656e7420746f6b656e000000000000000000000000000000000060648201526084016106b2565b60006124c360408051602081019091526000815290565b905060008151116124e35760405180602001604052806000815250611399565b806124ed8461264a565b6040516020016124fe9291906131d3565b6040516020818303038152906040529392505050565b61251e838361277c565b61252b60008484846122d6565b6108045760405162461bcd60e51b815260206004820152603260248201527f4552433732313a207472616e7366657220746f206e6f6e20455243373231526560448201527131b2b4bb32b91034b6b83632b6b2b73a32b960711b60648201526084016106b2565b6001600160a01b0383166125ed576125e881600880546000838152600960205260408120829055600182018355919091527ff3f7a9fe364faab93b216da50a3214154f22a0a2b415b23a84c8169e8b636ee30155565b612610565b816001600160a01b0316836001600160a01b0316146126105761261083826128ca565b6001600160a01b0382166126275761080481612967565b826001600160a01b0316826001600160a01b031614610804576108048282612a16565b60608161268a57505060408051808201909152600181527f3000000000000000000000000000000000000000000000000000000000000000602082015290565b8160005b81156126b4578061269e81613142565b91506126ad9050600a836132a2565b915061268e565b60008167ffffffffffffffff8111156126cf576126cf612d42565b6040519080825280601f01601f1916602001820160405280156126f9576020820181803683370190505b5090505b841561155e5761270e60018361315d565b915061271b600a866131a2565b612726906030613174565b60f81b81838151811061273b5761273b6130fd565b60200101907effffffffffffffffffffffffffffffffffffffffffffffffffffffffffffff1916908160001a905350612775600a866132a2565b94506126fd565b6001600160a01b0382166127d25760405162461bcd60e51b815260206004820181905260248201527f4552433732313a206d696e7420746f20746865207a65726f206164647265737360448201526064016106b2565b6000818152600260205260409020546001600160a01b0316156128375760405162461bcd60e51b815260206004820152601c60248201527f4552433732313a20746f6b656e20616c7265616479206d696e7465640000000060448201526064016106b2565b612843600083836120c8565b6001600160a01b038216600090815260036020526040812080546001929061286c908490613174565b909155505060008181526002602052604080822080546001600160a01b0319166001600160a01b03861690811790915590518392907fddf252ad1be2c89b69c2b068fc378daa952ba7f163c4a11628f55a4df523b3ef908290a45050565b600060016128d784610b35565b6128e1919061315d565b600083815260076020526040902054909150808214612934576001600160a01b03841660009081526006602090815260408083208584528252808320548484528184208190558352600790915290208190555b5060009182526007602090815260408084208490556001600160a01b039094168352600681528383209183525290812055565b6008546000906129799060019061315d565b600083815260096020526040812054600880549394509092849081106129a1576129a16130fd565b9060005260206000200154905080600883815481106129c2576129c26130fd565b60009182526020808320909101929092558281526009909152604080822084905585825281205560088054806129fa576129fa613233565b6001900381819060005260206000200160009055905550505050565b6000612a2183610b35565b6001600160a01b039093166000908152600660209081526040808320868452825280832085905593825260079052919091209190915550565b828054828255906000526020600020908101928215612a95579160200282015b82811115612a95578251825591602001919060010190612a7a565b50612aa1929150612b72565b5090565b828054612ab1906130c2565b90600052602060002090601f016020900481019282612ad35760008555612a95565b82601f10612aec57805160ff1916838001178555612a95565b82800160010185558215612a955791820182811115612a95578251825591602001919060010190612a7a565b828054828255906000526020600020908101928215612a955760005260206000209182015b82811115612a95578254825591600101919060010190612b3d565b508054600082559060005260206000209081019061119a91905b5b80821115612aa15760008155600101612b73565b6001600160e01b03198116811461119a57600080fd5b600060208284031215612baf57600080fd5b813561139981612b87565b60005b83811015612bd5578181015183820152602001612bbd565b83811115610d5d5750506000910152565b60008151808452612bfe816020860160208601612bba565b601f01601f19169290920160200192915050565b6020815260006113996020830184612be6565b600060208284031215612c3757600080fd5b5035919050565b80356001600160a01b0381168114612c5557600080fd5b919050565b60008060408385031215612c6d57600080fd5b612c7683612c3e565b946020939093013593505050565b600080600060608486031215612c9957600080fd5b612ca284612c3e565b9250612cb060208501612c3e565b9150604084013590509250925092565b600060208284031215612cd257600080fd5b61139982612c3e565b60008060408385031215612cee57600080fd5b50508035926020909101359150565b801515811461119a57600080fd5b60008060408385031215612d1e57600080fd5b612d2783612c3e565b91506020830135612d3781612cfd565b809150509250929050565b634e487b7160e01b600052604160045260246000fd5b60405160c0810167ffffffffffffffff81118282101715612d7b57612d7b612d42565b60405290565b604051601f8201601f1916810167ffffffffffffffff81118282101715612daa57612daa612d42565b604052919050565b600067ffffffffffffffff831115612dcc57612dcc612d42565b612ddf601f8401601f1916602001612d81565b9050828152838383011115612df357600080fd5b828260208301376000602084830101529392505050565b60008060008060808587031215612e2057600080fd5b612e2985612c3e565b9350612e3760208601612c3e565b925060408501359150606085013567ffffffffffffffff811115612e5a57600080fd5b8501601f81018713612e6b57600080fd5b612e7a87823560208401612db2565b91505092959194509250565b600060208284031215612e9857600080fd5b813567ffffffffffffffff811115612eaf57600080fd5b8201601f81018413612ec057600080fd5b61155e84823560208401612db2565b60008060408385031215612ee257600080fd5b612eeb83612c3e565b9150612ef960208401612c3e565b90509250929050565b600067ffffffffffffffff821115612f1c57612f1c612d42565b5060051b60200190565b60008060408385031215612f3957600080fd5b67ffffffffffffffff8084351115612f5057600080fd5b8335840185601f820112612f6357600080fd5b612f75612f708235612f02565b612d81565b81358082526020808301929160051b84010188811115612f9457600080fd5b602084015b818110156130ae578581351115612faf57600080fd5b8035850160c0818c03601f19011215612fc757600080fd5b612fcf612d58565b6020820135612fdd81612cfd565b81526040820135612fed81612cfd565b6020820152612ffe60608301612c3e565b604082015260808201358881111561301557600080fd5b8201603f81018d1361302657600080fd5b6020810135613037612f7082612f02565b81815260059190911b82016040019060208101908f83111561305857600080fd5b6040840193505b8284101561307a57833582526020938401939091019061305f565b60608501525061308f91505060a08301612c3e565b608082015260c0919091013560a0820152845260209384019301612f99565b509098602097909701359750505050505050565b600181811c908216806130d657607f821691505b602082108114156130f757634e487b7160e01b600052602260045260246000fd5b50919050565b634e487b7160e01b600052603260045260246000fd5b60006020828403121561312557600080fd5b5051919050565b634e487b7160e01b600052601160045260246000fd5b60006000198214156131565761315661312c565b5060010190565b60008282101561316f5761316f61312c565b500390565b600082198211156131875761318761312c565b500190565b634e487b7160e01b600052601260045260246000fd5b6000826131b1576131b161318c565b500690565b6000602082840312156131c857600080fd5b815161139981612cfd565b600083516131e5818460208801612bba565b8351908301906131f9818360208801612bba565b01949350505050565b6001600160a01b038416815282602082015260606040820152600061322a6060830184612be6565b95945050505050565b634e487b7160e01b600052603160045260246000fd5b60006001600160a01b0380871683528086166020840152508360408301526080606083015261327b6080830184612be6565b9695505050505050565b60006020828403121561329757600080fd5b815161139981612b87565b6000826132b1576132b161318c565b50049056fea264697066735822122039a8ad3e73910b553e05ead04e50e2a6faf62880346168444f3d2d2f1a44a56b64736f6c634300080b0033",
  "linkReferences": {},
  "deployedLinkReferences": {}
}