{
  "_format": "hh-sol-artifact-1",
  "contractName": "BundlrFactory",
  "sourceName": "contracts/bundlrFactory.sol",
  "abi": [
    {
      "inputs": [],
      "stateMutability": "nonpayable",
      "type": "constructor"
    },
    {
      "inputs": [],
      "name": "collectionCount",
      "outputs": [
        {
          "internalType": "uint256",
          "name": "_value",
          "type": "uint256"
        }
      ],
      "stateMutability": "view",
      "type": "function"
    },
    {
      "inputs": [
        {
          "internalType": "uint256",
          "name": "",
          "type": "uint256"
        }
      ],
      "name": "collections",
      "outputs": [
        {
          "internalType": "address",
          "name": "",
          "type": "address"
        }
      ],
      "stateMutability": "view",
      "type": "function"
    },
    {
      "inputs": [
        {
          "internalType": "uint256",
          "name": "maxSupply",
          "type": "uint256"
        },
        {
          "internalType": "string",
          "name": "symbol",
          "type": "string"
        },
        {
          "internalType": "string",
          "name": "name",
          "type": "string"
        },
        {
          "internalType": "string",
          "name": "metadata",
          "type": "string"
        }
      ],
      "name": "createNewCollection",
      "outputs": [],
      "stateMutability": "nonpayable",
      "type": "function"
    }
  ],
  "bytecode": "0x608060405234801561001057600080fd5b506135c3806100206000396000f3fe608060405234801561001057600080fd5b50600436106100415760003560e01c8063203dd24f14610046578063d57f966b1461005b578063fdbda0ec14610078575b600080fd5b6100596100543660046102a4565b6100b0565b005b6002546100659081565b6040519081526020015b60405180910390f35b61008b610086366004610336565b6101a3565b60405173ffffffffffffffffffffffffffffffffffffffff909116815260200161006f565b6100be600280546001019055565b600084848484336040516100d1906101da565b6100df95949392919061039c565b604051809103906000f0801580156100fb573d6000803e3d6000fd5b509050806001600061010c60025490565b815260208101919091526040016000908120805473ffffffffffffffffffffffffffffffffffffffff9384167fffffffffffffffffffffffff00000000000000000000000000000000000000009182161790915581546001810183559180527f290decd9548b62a8d60345a988386fc84ba6bc95484008f6362f93160ef3e563909101805493909216921691909117905550505050565b600081815481106101b357600080fd5b60009182526020909120015473ffffffffffffffffffffffffffffffffffffffff16905081565b613189806200040583390190565b7f4e487b7100000000000000000000000000000000000000000000000000000000600052604160045260246000fd5b600082601f83011261022857600080fd5b813567ffffffffffffffff80821115610243576102436101e8565b604051601f8301601f19908116603f0116810190828211818310171561026b5761026b6101e8565b8160405283815286602085880101111561028457600080fd5b836020870160208301376000602085830101528094505050505092915050565b600080600080608085870312156102ba57600080fd5b84359350602085013567ffffffffffffffff808211156102d957600080fd5b6102e588838901610217565b945060408701359150808211156102fb57600080fd5b61030788838901610217565b9350606087013591508082111561031d57600080fd5b5061032a87828801610217565b91505092959194509250565b60006020828403121561034857600080fd5b5035919050565b6000815180845260005b8181101561037557602081850181015186830182015201610359565b81811115610387576000602083870101525b50601f01601f19169290920160200192915050565b85815260a0602082015260006103b560a083018761034f565b82810360408401526103c7818761034f565b905082810360608401526103db818661034f565b91505073ffffffffffffffffffffffffffffffffffffffff83166080830152969550505050505056fe60806040523480156200001157600080fd5b506040516200318938038062003189833981016040819052620000349162000361565b8251839085906200004d906000906020850190620001ee565b50805162000063906001906020840190620001ee565b505050620000806200007a620000c360201b60201c565b620000c7565b6001600c5581516200009a90600f906020850190620001ee565b5084601081905550620000b8816200011960201b620010ba1760201c565b50505050506200045e565b3390565b600b80546001600160a01b038381166001600160a01b0319831681179093556040519116919082907f8be0079c531659141344cd1fd0a4f28419497f9722a3daafe3b4186f6b6457e090600090a35050565b600b546001600160a01b03163314620001795760405162461bcd60e51b815260206004820181905260248201527f4f776e61626c653a2063616c6c6572206973206e6f7420746865206f776e657260448201526064015b60405180910390fd5b6001600160a01b038116620001e05760405162461bcd60e51b815260206004820152602660248201527f4f776e61626c653a206e6577206f776e657220697320746865207a65726f206160448201526564647265737360d01b606482015260840162000170565b620001eb81620000c7565b50565b828054620001fc9062000421565b90600052602060002090601f0160209004810192826200022057600085556200026b565b82601f106200023b57805160ff19168380011785556200026b565b828001600101855582156200026b579182015b828111156200026b5782518255916020019190600101906200024e565b50620002799291506200027d565b5090565b5b808211156200027957600081556001016200027e565b634e487b7160e01b600052604160045260246000fd5b600082601f830112620002bc57600080fd5b81516001600160401b0380821115620002d957620002d962000294565b604051601f8301601f19908116603f0116810190828211818310171562000304576200030462000294565b816040528381526020925086838588010111156200032157600080fd5b600091505b8382101562000345578582018301518183018401529082019062000326565b83821115620003575760008385830101525b9695505050505050565b600080600080600060a086880312156200037a57600080fd5b855160208701519095506001600160401b03808211156200039a57600080fd5b620003a889838a01620002aa565b95506040880151915080821115620003bf57600080fd5b620003cd89838a01620002aa565b94506060880151915080821115620003e457600080fd5b50620003f388828901620002aa565b608088015190935090506001600160a01b03811681146200041357600080fd5b809150509295509295909350565b600181811c908216806200043657607f821691505b602082108114156200045857634e487b7160e01b600052602260045260246000fd5b50919050565b612d1b806200046e6000396000f3fe6080604052600436106101b75760003560e01c80636391e177116100ec578063c87b56dd1161008a578063f2a913b811610064578063f2a913b8146104d8578063f2fde38b146104ef578063f440a9631461050f578063fbe75eb61461052f57600080fd5b8063c87b56dd1461045c578063db006a751461047c578063e985e9c51461048f57600080fd5b80638da5cb5b116100c65780638da5cb5b146103e957806395d89b4114610407578063a22cb4651461041c578063b88d4fde1461043c57600080fd5b80636391e1771461038757806370a08231146103b4578063715018a6146103d457600080fd5b806323b872dd1161015957806342842e0e1161013357806342842e0e146103105780634f6ccce7146103305780634f909f85146103505780636352211e1461036757600080fd5b806323b872dd146102ba5780632f745c59146102da57806332cb6b0c146102fa57600080fd5b8063095ea7b311610195578063095ea7b31461024b5780631249c58b1461026d578063152cafde1461029057806318160ddd146102a557600080fd5b806301ffc9a7146101bc57806306fdde03146101f1578063081812fc14610213575b600080fd5b3480156101c857600080fd5b506101dc6101d736600461269a565b610544565b60405190151581526020015b60405180910390f35b3480156101fd57600080fd5b50610206610555565b6040516101e8919061270f565b34801561021f57600080fd5b5061023361022e366004612722565b6105e7565b6040516001600160a01b0390911681526020016101e8565b34801561025757600080fd5b5061026b610266366004612752565b610681565b005b34801561027957600080fd5b506102826107b3565b6040519081526020016101e8565b34801561029c57600080fd5b506102066107f8565b3480156102b157600080fd5b50600854610282565b3480156102c657600080fd5b5061026b6102d536600461277c565b610886565b3480156102e657600080fd5b506102826102f5366004612752565b61090d565b34801561030657600080fd5b5061028260105481565b34801561031c57600080fd5b5061026b61032b36600461277c565b6109b5565b34801561033c57600080fd5b5061028261034b366004612722565b6109d0565b34801561035c57600080fd5b50600e546102829081565b34801561037357600080fd5b50610233610382366004612722565b610a74565b34801561039357600080fd5b506102826103a2366004612722565b60126020526000908152604090205481565b3480156103c057600080fd5b506102826103cf3660046127b8565b610aff565b3480156103e057600080fd5b5061026b610b99565b3480156103f557600080fd5b50600b546001600160a01b0316610233565b34801561041357600080fd5b50610206610bff565b34801561042857600080fd5b5061026b6104373660046127e1565b610c0e565b34801561044857600080fd5b5061026b610457366004612888565b610c1d565b34801561046857600080fd5b50610206610477366004612722565b610cab565b61026b61048a366004612722565b610cb6565b34801561049b57600080fd5b506101dc6104aa366004612948565b6001600160a01b03918216600090815260056020908152604080832093909416825291909152205460ff1690565b3480156104e457600080fd5b50600d546102829081565b3480156104fb57600080fd5b5061026b61050a3660046127b8565b6110ba565b34801561051b57600080fd5b5061028261052a36600461299f565b61119c565b34801561053b57600080fd5b5061028261139f565b600061054f826113c2565b92915050565b60606000805461056490612b3b565b80601f016020809104026020016040519081016040528092919081815260200182805461059090612b3b565b80156105dd5780601f106105b2576101008083540402835291602001916105dd565b820191906000526020600020905b8154815290600101906020018083116105c057829003601f168201915b5050505050905090565b6000818152600260205260408120546001600160a01b03166106655760405162461bcd60e51b815260206004820152602c60248201527f4552433732313a20617070726f76656420717565727920666f72206e6f6e657860448201526b34b9ba32b73a103a37b5b2b760a11b60648201526084015b60405180910390fd5b506000908152600460205260409020546001600160a01b031690565b600061068c82610a74565b9050806001600160a01b0316836001600160a01b031614156107165760405162461bcd60e51b815260206004820152602160248201527f4552433732313a20617070726f76616c20746f2063757272656e74206f776e6560448201527f7200000000000000000000000000000000000000000000000000000000000000606482015260840161065c565b336001600160a01b0382161480610732575061073281336104aa565b6107a45760405162461bcd60e51b815260206004820152603860248201527f4552433732313a20617070726f76652063616c6c6572206973206e6f74206f7760448201527f6e6572206e6f7220617070726f76656420666f7220616c6c0000000000000000606482015260840161065c565b6107ae8383611400565b505050565b60006107c3600e80546001019055565b60006107ce600e5490565b90506107da338261146e565b6107f38160405180602001604052806000815250611488565b919050565b600f805461080590612b3b565b80601f016020809104026020016040519081016040528092919081815260200182805461083190612b3b565b801561087e5780601f106108535761010080835404028352916020019161087e565b820191906000526020600020905b81548152906001019060200180831161086157829003601f168201915b505050505081565b6108903382611531565b6109025760405162461bcd60e51b815260206004820152603160248201527f4552433732313a207472616e736665722063616c6c6572206973206e6f74206f60448201527f776e6572206e6f7220617070726f766564000000000000000000000000000000606482015260840161065c565b6107ae838383611628565b600061091883610aff565b821061098c5760405162461bcd60e51b815260206004820152602b60248201527f455243373231456e756d657261626c653a206f776e657220696e646578206f7560448201527f74206f6620626f756e6473000000000000000000000000000000000000000000606482015260840161065c565b506001600160a01b03919091166000908152600660209081526040808320938352929052205490565b6107ae83838360405180602001604052806000815250610c1d565b60006109db60085490565b8210610a4f5760405162461bcd60e51b815260206004820152602c60248201527f455243373231456e756d657261626c653a20676c6f62616c20696e646578206f60448201527f7574206f6620626f756e64730000000000000000000000000000000000000000606482015260840161065c565b60088281548110610a6257610a62612b76565b90600052602060002001549050919050565b6000818152600260205260408120546001600160a01b03168061054f5760405162461bcd60e51b815260206004820152602960248201527f4552433732313a206f776e657220717565727920666f72206e6f6e657869737460448201527f656e7420746f6b656e0000000000000000000000000000000000000000000000606482015260840161065c565b60006001600160a01b038216610b7d5760405162461bcd60e51b815260206004820152602a60248201527f4552433732313a2062616c616e636520717565727920666f7220746865207a6560448201527f726f206164647265737300000000000000000000000000000000000000000000606482015260840161065c565b506001600160a01b031660009081526003602052604090205490565b600b546001600160a01b03163314610bf35760405162461bcd60e51b815260206004820181905260248201527f4f776e61626c653a2063616c6c6572206973206e6f7420746865206f776e6572604482015260640161065c565b610bfd6000611800565b565b60606001805461056490612b3b565b610c19338383611852565b5050565b610c273383611531565b610c995760405162461bcd60e51b815260206004820152603160248201527f4552433732313a207472616e736665722063616c6c6572206973206e6f74206f60448201527f776e6572206e6f7220617070726f766564000000000000000000000000000000606482015260840161065c565b610ca584848484611921565b50505050565b606061054f8261199f565b33610cc082610a74565b6001600160a01b031614610d165760405162461bcd60e51b815260206004820152601960248201527f796f7520646f206e6f74206f776e207468652062756e646c6500000000000000604482015260640161065c565b60126000610d23600d5490565b8152602001908152602001600020543414610d805760405162461bcd60e51b815260206004820152601c60248201527f696e737566666963656e7420616d6f756e7420746f2072656465656d00000000604482015260640161065c565b60136000610d8d600d5490565b81526020808201929092526040908101600090812084825290925290205460ff1615610dfb5760405162461bcd60e51b815260206004820152601760248201527f62756e646c6520616c72656164792072656465656d6564000000000000000000604482015260640161065c565b600060116000610e0a600d5490565b8152602001908152602001600020600081548110610e2a57610e2a612b76565b60009182526020918290206040805160c0810182526004909302909101805460ff808216151585526101008204161515848601526001600160a01b0362010000909104168383015260018101805483518187028101870190945280845293949193606086019392830182828015610ec057602002820191906000526020600020905b815481526020019060010190808311610eac575b505050918352505060028201546001600160a01b031660208201526003909101546040909101529050610efc6000610ef7600d5490565b611b2a565b600160136000610f0b600d5490565b8152602080820192909252604090810160009081208682529092529020805460ff19169115159190911790558051156110115760005b81606001515181101561100f5781604001516001600160a01b03166323b872dd610f73600b546001600160a01b031690565b3385606001518581518110610f8a57610f8a612b76565b60209081029190910101516040516001600160e01b031960e086901b1681526001600160a01b0393841660048201529290911660248301526044820152606401600060405180830381600087803b158015610fe457600080fd5b505af1158015610ff8573d6000803e3d6000fd5b50505050808061100790612ba2565b915050610f41565b505b806020015115610c195780608001516001600160a01b03166323b872dd611040600b546001600160a01b031690565b60a08401516040516001600160e01b031960e085901b1681526001600160a01b03909216600483015233602483015260448201526064016020604051808303816000875af1158015611096573d6000803e3d6000fd5b505050506040513d601f19601f820116820180604052508101906107ae9190612bbd565b600b546001600160a01b031633146111145760405162461bcd60e51b815260206004820181905260248201527f4f776e61626c653a2063616c6c6572206973206e6f7420746865206f776e6572604482015260640161065c565b6001600160a01b0381166111905760405162461bcd60e51b815260206004820152602660248201527f4f776e61626c653a206e6577206f776e657220697320746865207a65726f206160448201527f6464726573730000000000000000000000000000000000000000000000000000606482015260840161065c565b61119981611800565b50565b600b546000906001600160a01b031633146111f95760405162461bcd60e51b815260206004820181905260248201527f4f776e61626c653a2063616c6c6572206973206e6f7420746865206f776e6572604482015260640161065c565b60105483511461124b5760405162461bcd60e51b815260206004820152601560248201527f696e76616c69642062756e646c65206c656e6774680000000000000000000000604482015260640161065c565b611259600d80546001019055565b60005b83518110156113745760116000611272600d5490565b815260200190815260200160002084828151811061129257611292612b76565b602090810291909101810151825460018181018555600094855293839020825160049092020180548385015160408501516001600160a01b0316620100000275ffffffffffffffffffffffffffffffffffffffff0000199115156101000261ff00199515159590951661ffff19909316929092179390931792909216919091178155606082015180519294919361132f9392850192910190612557565b5060808201516002820180546001600160a01b0319166001600160a01b0390921691909117905560a0909101516003909101558061136c81612ba2565b91505061125c565b508160126000611383600d5490565b8152602081019190915260400160002055600d545b9392505050565b6000601260006113ae600d5490565b815260200190815260200160002054905090565b60006001600160e01b031982167f780e9d6300000000000000000000000000000000000000000000000000000000148061054f575061054f82611d2d565b600081815260046020526040902080546001600160a01b0319166001600160a01b038416908117909155819061143582610a74565b6001600160a01b03167f8c5be1e5ebec7d5bd14f71427d1e84f3dd0314c0f7b2291e5b200ac8c7c3b92560405160405180910390a45050565b610c19828260405180602001604052806000815250611dc8565b6000828152600260205260409020546001600160a01b03166115125760405162461bcd60e51b815260206004820152602e60248201527f45524337323155524953746f726167653a2055524920736574206f66206e6f6e60448201527f6578697374656e7420746f6b656e000000000000000000000000000000000000606482015260840161065c565b6000828152600a6020908152604090912082516107ae928401906125a2565b6000818152600260205260408120546001600160a01b03166115aa5760405162461bcd60e51b815260206004820152602c60248201527f4552433732313a206f70657261746f7220717565727920666f72206e6f6e657860448201526b34b9ba32b73a103a37b5b2b760a11b606482015260840161065c565b60006115b583610a74565b9050806001600160a01b0316846001600160a01b031614806115f05750836001600160a01b03166115e5846105e7565b6001600160a01b0316145b8061162057506001600160a01b0380821660009081526005602090815260408083209388168352929052205460ff165b949350505050565b826001600160a01b031661163b82610a74565b6001600160a01b0316146116b75760405162461bcd60e51b815260206004820152602560248201527f4552433732313a207472616e736665722066726f6d20696e636f72726563742060448201527f6f776e6572000000000000000000000000000000000000000000000000000000606482015260840161065c565b6001600160a01b0382166117325760405162461bcd60e51b8152602060048201526024808201527f4552433732313a207472616e7366657220746f20746865207a65726f2061646460448201527f7265737300000000000000000000000000000000000000000000000000000000606482015260840161065c565b61173d838383611e46565b611748600082611400565b6001600160a01b0383166000908152600360205260408120805460019290611771908490612bda565b90915550506001600160a01b038216600090815260036020526040812080546001929061179f908490612bf1565b909155505060008181526002602052604080822080546001600160a01b0319166001600160a01b0386811691821790925591518493918716917fddf252ad1be2c89b69c2b068fc378daa952ba7f163c4a11628f55a4df523b3ef91a4505050565b600b80546001600160a01b038381166001600160a01b0319831681179093556040519116919082907f8be0079c531659141344cd1fd0a4f28419497f9722a3daafe3b4186f6b6457e090600090a35050565b816001600160a01b0316836001600160a01b031614156118b45760405162461bcd60e51b815260206004820152601960248201527f4552433732313a20617070726f766520746f2063616c6c657200000000000000604482015260640161065c565b6001600160a01b03838116600081815260056020908152604080832094871680845294825291829020805460ff191686151590811790915591519182527f17307eab39ab6107e8899845ad3d59bd9653f200f220920489ca2b5937696c31910160405180910390a3505050565b61192c848484611628565b61193884848484611e51565b610ca55760405162461bcd60e51b815260206004820152603260248201527f4552433732313a207472616e7366657220746f206e6f6e20455243373231526560448201527131b2b4bb32b91034b6b83632b6b2b73a32b960711b606482015260840161065c565b6000818152600260205260409020546060906001600160a01b0316611a2c5760405162461bcd60e51b815260206004820152603160248201527f45524337323155524953746f726167653a2055524920717565727920666f722060448201527f6e6f6e6578697374656e7420746f6b656e000000000000000000000000000000606482015260840161065c565b6000828152600a602052604081208054611a4590612b3b565b80601f0160208091040260200160405190810160405280929190818152602001828054611a7190612b3b565b8015611abe5780601f10611a9357610100808354040283529160200191611abe565b820191906000526020600020905b815481529060010190602001808311611aa157829003601f168201915b505050505090506000611adc60408051602081019091526000815290565b9050805160001415611aef575092915050565b815115611b21578082604051602001611b09929190612c09565b60405160208183030381529060405292505050919050565b61162084611f9a565b6000818152601160205260409020548210611b875760405162461bcd60e51b815260206004820152600e60248201527f696e76616c69642062756e646c65000000000000000000000000000000000000604482015260640161065c565b60008181526011602052604090208054611ba390600190612bda565b81548110611bb357611bb3612b76565b9060005260206000209060040201601160008381526020019081526020016000208381548110611be557611be5612b76565b600091825260209091208254600490920201805460ff928316151560ff19821681178355845461010090819004909416151590930261ff001990931661ffff19909116179190911780825582546001600160a01b036201000091829004160275ffffffffffffffffffffffffffffffffffffffff00001990911617815560018083018054611c769284019190612615565b5060028281015490820180546001600160a01b0319166001600160a01b039092169190911790556003918201549101556000818152601160205260409020805480611cc357611cc3612c38565b60008281526020812060046000199093019283020180547fffffffffffffffffffff0000000000000000000000000000000000000000000016815590611d0c6001830182612655565b506002810180546001600160a01b0319169055600060039091015590555050565b60006001600160e01b031982167f80ac58cd000000000000000000000000000000000000000000000000000000001480611d9057506001600160e01b031982167f5b5e139f00000000000000000000000000000000000000000000000000000000145b8061054f57507f01ffc9a7000000000000000000000000000000000000000000000000000000006001600160e01b031983161461054f565b611dd2838361208f565b611ddf6000848484611e51565b6107ae5760405162461bcd60e51b815260206004820152603260248201527f4552433732313a207472616e7366657220746f206e6f6e20455243373231526560448201527131b2b4bb32b91034b6b83632b6b2b73a32b960711b606482015260840161065c565b6107ae8383836121dd565b60006001600160a01b0384163b15611f8f57604051630a85bd0160e11b81526001600160a01b0385169063150b7a0290611e95903390899088908890600401612c4e565b6020604051808303816000875af1925050508015611ed0575060408051601f3d908101601f19168201909252611ecd91810190612c8a565b60015b611f75573d808015611efe576040519150601f19603f3d011682016040523d82523d6000602084013e611f03565b606091505b508051611f6d5760405162461bcd60e51b815260206004820152603260248201527f4552433732313a207472616e7366657220746f206e6f6e20455243373231526560448201527131b2b4bb32b91034b6b83632b6b2b73a32b960711b606482015260840161065c565b805181602001fd5b6001600160e01b031916630a85bd0160e11b149050611620565b506001949350505050565b6000818152600260205260409020546060906001600160a01b03166120275760405162461bcd60e51b815260206004820152602f60248201527f4552433732314d657461646174613a2055524920717565727920666f72206e6f60448201527f6e6578697374656e7420746f6b656e0000000000000000000000000000000000606482015260840161065c565b600061203e60408051602081019091526000815290565b9050600081511161205e5760405180602001604052806000815250611398565b8061206884612295565b604051602001612079929190612c09565b6040516020818303038152906040529392505050565b6001600160a01b0382166120e55760405162461bcd60e51b815260206004820181905260248201527f4552433732313a206d696e7420746f20746865207a65726f2061646472657373604482015260640161065c565b6000818152600260205260409020546001600160a01b03161561214a5760405162461bcd60e51b815260206004820152601c60248201527f4552433732313a20746f6b656e20616c7265616479206d696e74656400000000604482015260640161065c565b61215660008383611e46565b6001600160a01b038216600090815260036020526040812080546001929061217f908490612bf1565b909155505060008181526002602052604080822080546001600160a01b0319166001600160a01b03861690811790915590518392907fddf252ad1be2c89b69c2b068fc378daa952ba7f163c4a11628f55a4df523b3ef908290a45050565b6001600160a01b0383166122385761223381600880546000838152600960205260408120829055600182018355919091527ff3f7a9fe364faab93b216da50a3214154f22a0a2b415b23a84c8169e8b636ee30155565b61225b565b816001600160a01b0316836001600160a01b03161461225b5761225b83826123c7565b6001600160a01b038216612272576107ae81612464565b826001600160a01b0316826001600160a01b0316146107ae576107ae8282612513565b6060816122d557505060408051808201909152600181527f3000000000000000000000000000000000000000000000000000000000000000602082015290565b8160005b81156122ff57806122e981612ba2565b91506122f89050600a83612cbd565b91506122d9565b60008167ffffffffffffffff81111561231a5761231a612818565b6040519080825280601f01601f191660200182016040528015612344576020820181803683370190505b5090505b841561162057612359600183612bda565b9150612366600a86612cd1565b612371906030612bf1565b60f81b81838151811061238657612386612b76565b60200101907effffffffffffffffffffffffffffffffffffffffffffffffffffffffffffff1916908160001a9053506123c0600a86612cbd565b9450612348565b600060016123d484610aff565b6123de9190612bda565b600083815260076020526040902054909150808214612431576001600160a01b03841660009081526006602090815260408083208584528252808320548484528184208190558352600790915290208190555b5060009182526007602090815260408084208490556001600160a01b039094168352600681528383209183525290812055565b60085460009061247690600190612bda565b6000838152600960205260408120546008805493945090928490811061249e5761249e612b76565b9060005260206000200154905080600883815481106124bf576124bf612b76565b60009182526020808320909101929092558281526009909152604080822084905585825281205560088054806124f7576124f7612c38565b6001900381819060005260206000200160009055905550505050565b600061251e83610aff565b6001600160a01b039093166000908152600660209081526040808320868452825280832085905593825260079052919091209190915550565b828054828255906000526020600020908101928215612592579160200282015b82811115612592578251825591602001919060010190612577565b5061259e92915061266f565b5090565b8280546125ae90612b3b565b90600052602060002090601f0160209004810192826125d05760008555612592565b82601f106125e957805160ff1916838001178555612592565b828001600101855582156125925791820182811115612592578251825591602001919060010190612577565b8280548282559060005260206000209081019282156125925760005260206000209182015b8281111561259257825482559160010191906001019061263a565b508054600082559060005260206000209081019061119991905b5b8082111561259e5760008155600101612670565b6001600160e01b03198116811461119957600080fd5b6000602082840312156126ac57600080fd5b813561139881612684565b60005b838110156126d25781810151838201526020016126ba565b83811115610ca55750506000910152565b600081518084526126fb8160208601602086016126b7565b601f01601f19169290920160200192915050565b60208152600061139860208301846126e3565b60006020828403121561273457600080fd5b5035919050565b80356001600160a01b03811681146107f357600080fd5b6000806040838503121561276557600080fd5b61276e8361273b565b946020939093013593505050565b60008060006060848603121561279157600080fd5b61279a8461273b565b92506127a86020850161273b565b9150604084013590509250925092565b6000602082840312156127ca57600080fd5b6113988261273b565b801515811461119957600080fd5b600080604083850312156127f457600080fd5b6127fd8361273b565b9150602083013561280d816127d3565b809150509250929050565b634e487b7160e01b600052604160045260246000fd5b60405160c0810167ffffffffffffffff8111828210171561285157612851612818565b60405290565b604051601f8201601f1916810167ffffffffffffffff8111828210171561288057612880612818565b604052919050565b6000806000806080858703121561289e57600080fd5b6128a78561273b565b935060206128b681870161273b565b935060408601359250606086013567ffffffffffffffff808211156128da57600080fd5b818801915088601f8301126128ee57600080fd5b81358181111561290057612900612818565b612912601f8201601f19168501612857565b9150808252898482850101111561292857600080fd5b808484018584013760008482840101525080935050505092959194509250565b6000806040838503121561295b57600080fd5b6129648361273b565b91506129726020840161273b565b90509250929050565b600067ffffffffffffffff82111561299557612995612818565b5060051b60200190565b600080604083850312156129b257600080fd5b67ffffffffffffffff80843511156129c957600080fd5b8335840185601f8201126129dc57600080fd5b6129ee6129e9823561297b565b612857565b81358082526020808301929160051b84010188811115612a0d57600080fd5b602084015b81811015612b27578581351115612a2857600080fd5b8035850160c0818c03601f19011215612a4057600080fd5b612a4861282e565b6020820135612a56816127d3565b81526040820135612a66816127d3565b6020820152612a776060830161273b565b6040820152608082013588811115612a8e57600080fd5b8201603f81018d13612a9f57600080fd5b6020810135612ab06129e98261297b565b81815260059190911b82016040019060208101908f831115612ad157600080fd5b6040840193505b82841015612af3578335825260209384019390910190612ad8565b606085015250612b0891505060a0830161273b565b608082015260c0919091013560a0820152845260209384019301612a12565b509098602097909701359750505050505050565b600181811c90821680612b4f57607f821691505b60208210811415612b7057634e487b7160e01b600052602260045260246000fd5b50919050565b634e487b7160e01b600052603260045260246000fd5b634e487b7160e01b600052601160045260246000fd5b6000600019821415612bb657612bb6612b8c565b5060010190565b600060208284031215612bcf57600080fd5b8151611398816127d3565b600082821015612bec57612bec612b8c565b500390565b60008219821115612c0457612c04612b8c565b500190565b60008351612c1b8184602088016126b7565b835190830190612c2f8183602088016126b7565b01949350505050565b634e487b7160e01b600052603160045260246000fd5b60006001600160a01b03808716835280861660208401525083604083015260806060830152612c8060808301846126e3565b9695505050505050565b600060208284031215612c9c57600080fd5b815161139881612684565b634e487b7160e01b600052601260045260246000fd5b600082612ccc57612ccc612ca7565b500490565b600082612ce057612ce0612ca7565b50069056fea264697066735822122070130a831d17ba82d2d48fa8434be8627e5f1f1f78244e07a18c40d1e485d9fb64736f6c634300080b0033a2646970667358221220f96456d0c4e8d26df81ec2115e03965740a98711d173e2410ce023e41579fcc164736f6c634300080b0033",
  "linkReferences": {},
  "deployedLinkReferences": {}
}